:1000000012C035C32CC02AC029C028C027C026C0B2
:1000100025C024C023C022C021C020C01FC01EC0D4
:100020001DC01CC01BC011241FBECFE5D4E0DEBF25
:10003000CDBF10E0A0E6B0E0E6EBFDE002C0059029
:100040000D92A03BB107D9F710E0A0EBB0E001C0E2
:100050001D92A03BB107E1F75FD6ABC6D1CF1F928F
:100060000F920FB60F9211242F933F938F939F936C
:10007000EF93FF93F89483E290E02FEF35B325BB25
:10008000E5E2F2E03197F1F700C0000035B315BAB0
:10009000E9EFF0E03197F1F700C00000019771F748
:1000A0007894FF91EF919F918F913F912F910F90B5
:1000B0000FBE0F901F9018951F93CF93DF93582F6B
:1000C000192FEB01DD230CF528C0B0813296B8BBA7
:1000D000A7EEB3E01197F1F700C000000196883059
:1000E000910599F7442359F033234CF0CB01B0E14B
:1000F000BA95F1F700C0019628173907C4F72F5FAA
:100100003F4FC217D3072CF408C020E030E060E076
:1001100070E0E52FF12FCB01D8CF18BADF91CF9146
:100120001F910895EF92FF920F931F93CF93DF9348
:10013000EB01DD231CF531C03297808188BB87EE4F
:1001400093E00197F1F700C00000442359F03323F6
:100150004CF0CD0150E15A95F1F700C001962817F7
:100160003907C4F7615070408FEF6F3F780721F770
:100170002F5F3F4FC217D3076CF40FC020E030E071
:100180008C01005F1F4F0F2EF7E0EF2EFF24F02DA4
:10019000A0E0B0E0F801B701CFCF18BADF91CF915E
:1001A0001F910F91FF90EF9008951F93CF93DF93CE
:1001B000582F192FEB01DD230CF528C0B0813296A2
:1001C000B8BBA7EEB3E01197F1F700C000000196AD
:1001D0008430910599F7442359F033234CF0CB0137
:1001E000B0E1BA95F1F700C0019628173907C4F7B6
:1001F0002F5F3F4FC217D3072CF408C020E030E038
:1002000060E070E0E52FF12FCB01D8CF18BADF9175
:10021000CF911F910895EF92FF920F931F93CF9369
:10022000DF93DB01BB2314F530C03297508158BBFC
:10023000C7EED3E02197F1F700C000000197DFEF90
:100240008F3F9D0791F7442359F033234CF0C801A9
:1002500050E15A95F1F700C0019628173907C4F705
:100260002F5F3F4FA217B3076CF40FC020E030E0C0
:10027000BC01685F7F4F0F2EF3E0EF2EFF24F02DBF
:1002800000E010E0FB01C701D0CF18BADF91CF9199
:100290001F910F91FF90EF90089583E290E02FEF70
:1002A00035B325BBE2E1F1E03197F1F700C0000082
:1002B00035B315BAE9E9F0E13197F1F700C0000074
:1002C000019771F7089583E290E02FEF35B325BBD6
:1002D000E5E2F2E03197F1F700C0000035B315BA5E
:1002E000E9E9F0E13197F1F700C00000019771F7FB
:1002F000089583E290E0A89AE2E1F1E03197F1F706
:1003000000C00000A898E9E9F0E13197F1F700C0DA
:100310000000019781F7089583E290E0A99AE2E155
:10032000F1E03197F1F700C00000A998E9E9F0E1A8
:100330003197F1F700C00000019781F7089583E23B
:1003400090E0AA9AE2E1F1E03197F1F700C00000F5
:10035000AA98E9E9F0E13197F1F700C000000197B0
:1003600081F7089583E290E0AB9AE2E1F1E0319702
:10037000F1F700C00000AB98E9E9F0E13197F1F73F
:1003800000C00000019781F7089583E290E0AC9AE5
:10039000E2E1F1E03197F1F700C00000AC98E9E943
:1003A000F0E13197F1F700C00000019781F708955F
:1003B00083E290E0A89AE5E2F2E03197F1F700C01D
:1003C0000000A898E9E9F0E13197F1F700C00000DA
:1003D000019781F7089583E290E0A99AE5E2F2E0BF
:1003E0003197F1F700C00000A998E9E9F0E13197F1
:1003F000F1F700C00000019781F7089583E290E0D3
:10040000AA9AE5E2F2E03197F1F700C00000AA985D
:10041000E9E9F0E13197F1F700C00000019781F7B9
:10042000089583E290E0AB9AE5E2F2E03197F1F7CC
:1004300000C00000AB98E9E9F0E13197F1F700C0A6
:100440000000019781F7089583E290E0AC9AE5E21D
:10045000F2E03197F1F700C00000AC98E9E9F0E173
:100460003197F1F700C00000019781F708958AE005
:1004700090E02FEF35B325BBA2E1B1E01197F1F782
:1004800000C0000035B315BAE9E9F0E13197F1F7A2
:1004900000C00000019771F78FE39DE0A3E0815059
:1004A0009040A040E1F700C0000089E190E02FEF0C
:1004B00035B325BBA2E1B1E01197F1F700C0000010
:1004C00035B315BAE9E9F0E13197F1F700C0000062
:1004D000019771F7089585E090E0AC9AA2E1B1E050
:1004E0001197F1F700C00000AC98E9E9F0E131970D
:1004F000F1F700C00000019781F78AE090E0AB9A25
:10050000A2E1B1E01197F1F700C00000AB98E9E972
:10051000F0E13197F1F700C00000019781F78FE01B
:1005200090E0AA9AA2E1B1E01197F1F700C00000B3
:10053000AA98E9E9F0E13197F1F700C000000197CE
:1005400081F784E190E0A99AA2E1B1E01197F1F777
:1005500000C00000A998E9E9F0E13197F1F700C087
:100560000000019781F789E190E0A89AA2E1B1E04B
:100570001197F1F700C00000A898E9E9F0E1319780
:10058000F1F700C00000019781F78FE39DE0A3E041
:1005900081509040A040E1F700C000008EE190E063
:1005A0002FEF35B325BBA2E1B1E01197F1F700C001
:1005B000000035B315BAE9E9F0E13197F1F700C071
:1005C0000000019771F7089583E290E0A89AA9EFDF
:1005D000B0E01197F1F700C00000A898E9E9F0E158
:1005E0003197F1F700C00000019781F783E290E0B6
:1005F000A99AA9EFB0E01197F1F700C00000A998FF
:10060000E9E9F0E13197F1F700C00000019781F7C7
:1006100083E290E0AB9AA9EFB0E01197F1F700C048
:100620000000AB98E9E9F0E13197F1F700C0000074
:10063000019781F783E290E0AC9AA9EFB0E01197BF
:10064000F1F700C00000AC98E9E9F0E13197F1F76B
:1006500000C00000019781F78FE794E8AEE1815078
:100660009040A040E1F700C000002DDE08951F92E9
:100670000F920FB60F9211242F933F934F935F93D6
:100680006F937F938F939F93AF93BF93EF93FF935A
:10069000F8949ADF7894FF91EF91BF91AF919F9179
:1006A0008F917F916F915F914F913F912F910F901B
:1006B0000FBE0F901F901895CF93DF93C8E6D0E040
:1006C000CE0160E971E040E070DDCE0166E970E0E6
:1006D00040E0A1DDC8E7D0E0CE0164E973E040E08E
:1006E00064DDCE016CE073E040E095DDDF91CF91F9
:1006F000089583E290E0A99AE2E1F1E03197F1F701
:1007000000C00000A998E9E9F0E13197F1F700C0D5
:100710000000019781F787E090E0AA9AE2E1F1E01A
:100720003197F1F700C00000AA98E9E9F0E13197AC
:10073000F1F700C00000019781F784E090E0AB9AE8
:10074000E2E1F1E03197F1F700C00000AB98E9E990
:10075000F0E13197F1F700C00000019781F7AC9A02
:1007600082E191E00197F1F700C00000AC98E9E95F
:10077000F0E13197F1F700C00000AC9A82E191E01E
:100780000197F1F700C00000AC98E9E9F0E131977A
:10079000F1F700C0000008950F931F93CF93DF93EC
:1007A00008E610E0C80168E770E040E034DD8FE75C
:1007B0009AE1A6E081509040A040E1F700C000001F
:1007C000C8E7D0E0CE016AEF70E040E0EEDC8FE7F2
:1007D0009AE1A6E081509040A040E1F700C00000FF
:1007E00088DF8FE79AE1A6E081509040A040E1F7D2
:1007F00000C00000CE016AEF70E040E00CDD8FE742
:100800009AE1A6E081509040A040E1F700C00000CE
:100810005ADD8FE79AE1A6E081509040A040E1F7D1
:1008200000C00000CE0164E670E040E0BEDCCE0116
:1008300063E770E040E0EFDCCE016FE070E040E0A5
:10084000B4DC8FE79AE1A6E081509040A040E1F748
:1008500000C00000C80168E770E040E0A6DC8FEB54
:1008600097E2A9E081509040A040E1F700C000006D
:1008700080E790E066E970E040E0CDDCCE0164E620
:1008800070E040E092DC8FE79AE1A6E08150904072
:10089000A040E1F700C0000080E990E066E970E068
:1008A00040E00ADC80EA90E064E670E040E03ADC98
:1008B0008FE79AE1A6E081509040A040E1F700C0A8
:1008C0000000C80166E970E040E0A5DC8FE79AE12E
:1008D000A6E081509040A040E1F700C00000CE01AA
:1008E00064EF71E040E061DC8FE79AE1A6E08150BF
:1008F0009040A040E1F700C00000EDDDC80166E9CE
:1009000070E040E052DCDFDC8FE79AE1A6E0815046
:100910009040A040E1F700C00000C80166E970E027
:1009200040E079DCCE0164EF71E040E074DCC801A6
:1009300066E970E040E039DC8FEB97E2A9E0815096
:100940009040A040E1F700C00000DF91CF911F91DF
:100950000F9108950F931F93CF93DF9380E790E05B
:1009600066E970E040E057DC88E790E06EE571E012
:1009700040E01BDC8FE79AE1A6E081509040A04068
:10098000E1F700C000008FE79AE1A6E081509040B7
:10099000A040E1F700C0000085E090E0AC9AA2E141
:1009A000B1E01197F1F700C00000AC98E9E9F0E17F
:1009B0003197F1F700C00000019781F78AE090E0DD
:1009C000AB9AA2E1B1E01197F1F700C00000AB983B
:1009D000E9E9F0E13197F1F700C00000019781F7F4
:1009E0008FE090E0AA9AA2E1B1E01197F1F700C080
:1009F0000000AA98E9E9F0E13197F1F700C00000A2
:100A0000019781F784E190E0A99AA2E1B1E0119702
:100A1000F1F700C00000A998E9E9F0E13197F1F79A
:100A200000C00000019781F74EDC8FE39DE0A3E05A
:100A300081509040A040E1F700C0000084E190E0C8
:100A4000A99AA2E1B1E01197F1F700C00000A998BE
:100A5000E9E9F0E13197F1F700C00000019781F773
:100A60008FE090E0AA9AA2E1B1E01197F1F700C0FF
:100A70000000AA98E9E9F0E13197F1F700C0000021
:100A8000019781F78AE090E0AB9AA2E1B1E011977B
:100A9000F1F700C00000AB98E9E9F0E13197F1F718
:100AA00000C00000019781F785E090E0AC9AA2E1D8
:100AB000B1E01197F1F700C00000AC98E9E9F0E16E
:100AC0003197F1F700C00000019781F7FCDB8FE759
:100AD0009AE1A6E081509040A040E1F700C00000FC
:100AE00008E710E0C8016CE271E040E094DB8FE3BE
:100AF0009DE0A3E081509040A040E1F700C00000DD
:100B0000C8016CE271E040E050DBE5DCC8E6D0E013
:100B1000CE016BE470E040E048DB8FE39DE0A3E0B2
:100B200081509040A040E1F700C00000CCDBCE0136
:100B30006BE470E040E039DB8FE79AE1A6E081509A
:100B40009040A040E1F700C00000D3DD8FE79AE1BC
:100B5000A6E081509040A040E1F700C00000CE0127
:100B600066E970E040E057DB8FE79AE1A6E081504C
:100B70009040A040E1F700C00000A5DB8FE79AE1BC
:100B8000A6E081509040A040E1F700C00000C801FD
:100B900064EF71E040E03FDB8FE79AE1A6E081502F
:100BA0009040A040E1F700C00000CE0166E970E08F
:100BB00040E0FBDA8FE79AE1A6E081509040A04048
:100BC000E1F700C0000085E090E0AC9AA2E1B1E05E
:100BD0001197F1F700C00000AC98E9E9F0E1319716
:100BE000F1F700C00000019781F78AE090E0AB9A2E
:100BF000A2E1B1E01197F1F700C00000AB98E9E97C
:100C0000F0E13197F1F700C00000019781F78FE024
:100C100090E0AA9AA2E1B1E01197F1F700C00000BC
:100C2000AA98E9E9F0E13197F1F700C000000197D7
:100C300081F784E190E0A99AA2E1B1E01197F1F780
:100C400000C00000A998E9E9F0E13197F1F700C090
:100C50000000019781F737DB8FE39DE0A3E081502F
:100C60009040A040E1F700C0000085E090E0AC9A21
:100C7000A2E1B1E01197F1F700C00000AC98E9E9FA
:100C8000F0E13197F1F700C00000019781F78AE0A9
:100C900090E0AB9AA2E1B1E01197F1F700C000003B
:100CA000AB98E9E9F0E13197F1F700C00000019756
:100CB00081F78FE090E0AA9AA2E1B1E01197F1F7F5
:100CC00000C00000AA98E9E9F0E13197F1F700C00F
:100CD0000000019781F784E190E0A99AA2E1B1E0D8
:100CE0001197F1F700C00000A998E9E9F0E1319708
:100CF000F1F700C00000019781F7E5DA8FE79AE18C
:100D0000A6E081509040A040E1F700C00000DF91D4
:100D1000CF911F910F9108958FEF87BB84BB11BABC
:100D200082BB8BB7806C8BBF85B785BF7894CBDADD
:100D3000C3DCC0E0D0E000E010E022C02DDD8FE396
:100D400092E4AFE081509040A040E1F700C0000085
:100D500001DE8FE392E4AFE081509040A040E1F7E4
:100D600000C00000C431D10551F48FE794E8AEE132
:100D700081509040A040E1F700C000009DDC21962A
:100D8000C531D105DCF208DD8FE392E4AFE081509C
:100D90009040A040E1F700C00000DCDD8FE392E46A
:100DA000AFE081509040A040E1F700C00000E801B2
:060DB000E6CFF894FFCF2E
:100DB6000C00120081006000C40092001900680057
:100DC600400080001000080004000200010020001E
:100DD6006400C40086009200130019002900680010
:100DE6004000C00080009000100018000800480075
:100DF6002400040006000200030001002100200078
:00000001FF
