:1000000012C02DC02BC02AC029C028C027C026C0BE
:1000100025C024C023C022C021C020C01FC01EC0D4
:100020001DC01CC01BC011241FBECFE5D4E0DEBF25
:10003000CDBF10E0A0E6B0E0E2E3FEE002C0059034
:100040000D92A03BB107D9F710E0A0EBB0E001C0E2
:100050001D92A43BB107E1F79CD6E9C6D1CF1F9210
:100060000F920FB60F9211242F933F938F939F936C
:10007000AF93BF93EF93FF93F89483E290E02FEF59
:1000800035B325BBA2E1B1E01197F1F700C0000044
:1000900035B315BAE9E9F0E13197F1F700C0000096
:1000A000019771F78FE79AE1A6E081509040A04058
:1000B000E1F700C0000083E290E02FEF35B325BBED
:1000C000A5E2B2E01197F1F700C0000035B315BA10
:1000D000E9EFF0E03197F1F700C00000019771F708
:1000E0007894FF91EF91BF91AF919F918F913F9144
:1000F0002F910F900FBE0F901F9018951F93CF93C5
:10010000DF93582F192FEB01DD230CF528C0B081A8
:100110003296B8BBA7EEB3E01197F1F700C000002C
:1001200001968830910599F7442359F033234CF018
:10013000CB01B0E1BA95F1F700C001962817390755
:10014000C4F72F5F3F4FC217D3072CF408C020E03D
:1001500030E060E070E0E52FF12FCB01D8CF18BA86
:10016000DF91CF911F910895EF92FF920F931F930C
:10017000CF93DF93EB01DD231CF531C032978081F3
:1001800088BB87EE93E00197F1F700C0000044239D
:1001900059F033234CF0CD0150E15A95F1F700C0EE
:1001A000019628173907C4F7615070408FEF6F3FF1
:1001B000780721F72F5F3F4FC217D3076CF40FC0AA
:1001C00020E030E08C01005F1F4F0F2EF7E0EF2E94
:1001D000FF24F02DA0E0B0E0F801B701CFCF18BAAE
:1001E000DF91CF911F910F91FF90EF9008951F9392
:1001F000CF93DF93582F192FEB01DD230CF528C087
:10020000B0813296B8BBA7EEB3E01197F1F700C00A
:10021000000001968430910599F7442359F0332367
:100220004CF0CB01B0E1BA95F1F700C00196281768
:100230003907C4F72F5F3F4FC217D3072CF408C00C
:1002400020E030E060E070E0E52FF12FCB01D8CF67
:1002500018BADF91CF911F910895EF92FF920F93FB
:100260001F93CF93DF93DB01BB2314F530C032978C
:10027000508158BBC7EED3E02197F1F700C00000D2
:100280000197DFEF8F3F9D0791F7442359F0332308
:100290004CF0C80150E15A95F1F700C001962817BB
:1002A0003907C4F72F5F3F4FA217B3076CF40FC095
:1002B00020E030E0BC01685F7F4F0F2EF3E0EF2EAF
:1002C000FF24F02D00E010E0FB01C701D0CF18BAE9
:1002D000DF91CF911F910F91FF90EF90089583E2EE
:1002E00090E02FEF35B325BBE2E1F1E03197F1F774
:1002F00000C0000035B315BAE9E9F0E13197F1F734
:1003000000C00000019771F7089583E290E02FEF9D
:1003100035B325BBE5E2F2E03197F1F700C000000C
:1003200035B315BAE9E9F0E13197F1F700C0000003
:10033000019771F7089583E290E0A89AE2E1F1E075
:100340003197F1F700C00000A898E9E9F0E1319792
:10035000F1F700C00000019781F7089583E290E073
:10036000A99AE2E1F1E03197F1F700C00000A99805
:10037000E9E9F0E13197F1F700C00000019781F75A
:10038000089583E290E0AA9AE2E1F1E03197F1F773
:1003900000C00000AA98E9E9F0E13197F1F700C048
:1003A0000000019781F7089583E290E0AB9AE2E1C3
:1003B000F1E03197F1F700C00000AB98E9E9F0E116
:1003C0003197F1F700C00000019781F7089583E2AB
:1003D00090E0AC9AE2E1F1E03197F1F700C0000063
:1003E000AC98E9E9F0E13197F1F700C0000001971E
:1003F00081F7089583E290E0A89AE5E2F2E0319770
:10040000F1F700C00000A898E9E9F0E13197F1F7B1
:1004100000C00000019781F7089583E290E0A99A57
:10042000E5E2F2E03197F1F700C00000A998E9E9B0
:10043000F0E13197F1F700C00000019781F70895CE
:1004400083E290E0AA9AE5E2F2E03197F1F700C08A
:100450000000AA98E9E9F0E13197F1F700C0000047
:10046000019781F7089583E290E0AB9AE5E2F2E02C
:100470003197F1F700C00000AB98E9E9F0E131975E
:10048000F1F700C00000019781F7089583E290E042
:10049000AC9AE5E2F2E03197F1F700C00000AC98C9
:1004A000E9E9F0E13197F1F700C00000019781F729
:1004B00008958AE090E02FEF35B325BBA2E1B1E0CB
:1004C0001197F1F700C0000035B315BAE9E9F0E182
:1004D0003197F1F700C00000019771F78FE39DE0BD
:1004E000A3E081509040A040E1F700C0000089E106
:1004F00090E02FEF35B325BBA2E1B1E01197F1F702
:1005000000C0000035B315BAE9E9F0E13197F1F721
:1005100000C00000019771F7089585E090E0AC9A63
:10052000A2E1B1E01197F1F700C00000AC98E9E951
:10053000F0E13197F1F700C00000019781F78AE000
:1005400090E0AB9AA2E1B1E01197F1F700C0000092
:10055000AB98E9E9F0E13197F1F700C000000197AD
:1005600081F78FE090E0AA9AA2E1B1E01197F1F74C
:1005700000C00000AA98E9E9F0E13197F1F700C066
:100580000000019781F784E190E0A99AA2E1B1E02F
:100590001197F1F700C00000A998E9E9F0E131975F
:1005A000F1F700C00000019781F789E190E0A89A77
:1005B000A2E1B1E01197F1F700C00000A898E9E9C5
:1005C000F0E13197F1F700C00000019781F78FE368
:1005D0009DE0A3E081509040A040E1F700C0000002
:1005E0008EE190E02FEF35B325BBA2E1B1E011978A
:1005F000F1F700C0000035B315BAE9E9F0E1319731
:10060000F1F700C00000019771F7089583E290E0D0
:10061000A89AE9EFF0E03197F1F700C00000A89840
:10062000E9E9F0E13197F1F700C00000019781F7A7
:1006300083E290E0A99AE9EFF0E03197F1F700C08A
:100640000000A998E9E9F0E13197F1F700C0000056
:10065000019781F783E290E0AB9AE9EFF0E0319700
:10066000F1F700C00000AB98E9E9F0E13197F1F74C
:1006700000C00000019781F783E290E0AC9AE9EFB7
:10068000F0E03197F1F700C00000AC98E9E9F0E143
:100690003197F1F700C00000019781F70895CF93DB
:1006A000DF93C8E6D0E0CE0160E971E040E09FDD75
:1006B000CE0166E970E040E0D0DDC8E7D0E0CE01D1
:1006C00064E973E040E093DDCE0166E470E040E071
:1006D000C4DDCE0164E670E040E0BFDDDF91CF9184
:1006E000089583E290E0A99AE2E1F1E03197F1F711
:1006F00000C00000A998E9E9F0E13197F1F700C0E6
:100700000000019781F787E090E0AA9AE2E1F1E02A
:100710003197F1F700C00000AA98E9E9F0E13197BC
:10072000F1F700C00000019781F784E090E0AB9AF8
:10073000E2E1F1E03197F1F700C00000AB98E9E9A0
:10074000F0E13197F1F700C00000019781F7AC9A12
:1007500082E191E00197F1F700C00000AC98E9E96F
:10076000F0E13197F1F700C00000AC9A82E191E02E
:100770000197F1F700C00000AC98E9E9F0E131978A
:10078000F1F700C0000008950F931F93CF93DF93FC
:1007900008E610E0C80166EE70E040E05EDD8FE73D
:1007A0009AE1A6E081509040A040E1F700C000002F
:1007B00080DE8FE79AE1A6E081509040A040E1F70B
:1007C00000C00000A2DD8FE79AE1A6E081509040D2
:1007D000A040E1F700C0000080E990E064E670E02E
:1007E00040E08CDC8FE79AE1A6E081509040A04089
:1007F000E1F700C0000075DF8FE79AE1A6E08150C5
:100800009040A040E1F700C00000C8E7D0E0CE0172
:1008100066E970E040E021DDCE0166E970E040E08D
:10082000E6DC73DDCE0164E670E040E0E0DC8FE7FB
:100830009AE1A6E081509040A040E1F700C000009E
:10084000C80162E870E040E0D2DC8FEF99E6A8E1F1
:1008500081509040A040E1F700C00000C80168E767
:1008600070E040E0FADC8FE79AE1A6E0815090402A
:10087000A040E1F700C00000CE016AEF70E040E068
:10088000ECDC8FE79AE1A6E081509040A040E1F7D0
:1008900000C000000EDE8FE79AE1A6E08150904094
:1008A000A040E1F700C00000CE016AEF70E040E038
:1008B0009EDC8FE79AE1A6E081509040A040E1F7EE
:1008C00000C0000022DD8FE79AE1A6E08150904051
:1008D000A040E1F700C00000C80168E770E040E018
:1008E00086DC8FE79AE1A6E081509040A040E1F7D6
:1008F00000C00000C80160EA70E040E0AEDC8FE7B5
:100900009AE1A6E081509040A040E1F700C00000CD
:10091000CE016FE070E040E06ADCCE0167ED70E090
:1009200040E09BDCCE0168EC70E040E060DCC80198
:1009300060EA70E040E05BDC8FEF99E6A8E181506F
:100940009040A040E1F700C00000C80160EA70E0FC
:1009500040E083DC8FE79AE1A6E081509040A04020
:10096000E1F700C00000CE0168EB71E040E075DC0B
:100970008FE79AE1A6E081509040A040E1F700C0E7
:100980000000CBDDC80160EA70E040E030DCBDDC97
:100990008FE79AE1A6E081509040A040E1F700C0C7
:1009A0000000C80160EA70E040E057DC8FE79AE1A0
:1009B000A6E081509040A040E1F700C00000CE01C9
:1009C00068EB71E040E013DC8FE79AE1A6E081502C
:1009D0009040A040E1F700C00000C80160EA70E06C
:1009E00040E005DC8FE79AE1A6E081509040A0400E
:1009F000E1F700C00000DF91CF911F910F910895A2
:100A00000F931F93CF93DF9388E690E066E970E041
:100A100040E023DC88E790E068EB71E040E01DDC1B
:100A20008FE79AE1A6E081509040A040E1F700C036
:100A3000000085E090E0AC9AA2E1B1E01197F1F7F7
:100A400000C00000AC98E9E9F0E13197F1F700C08F
:100A50000000019781F78AE090E0AB9AA2E1B1E053
:100A60001197F1F700C00000AB98E9E9F0E1319788
:100A7000F1F700C00000019781F78FE090E0AA9A9B
:100A8000A2E1B1E01197F1F700C00000AA98E9E9EE
:100A9000F0E13197F1F700C00000019781F784E1A0
:100AA00090E0A99AA2E1B1E01197F1F700C000002F
:100AB000A998E9E9F0E13197F1F700C0000001974A
:100AC00081F723DC8FE39DE0A3E081509040A040BC
:100AD000E1F700C0000084E190E0A99AA2E1B1E052
:100AE0001197F1F700C00000A998E9E9F0E131970A
:100AF000F1F700C00000019781F78FE090E0AA9A1B
:100B0000A2E1B1E01197F1F700C00000AA98E9E96D
:100B1000F0E13197F1F700C00000019781F78AE01A
:100B200090E0AB9AA2E1B1E01197F1F700C00000AC
:100B3000AB98E9E9F0E13197F1F700C000000197C7
:100B400081F785E090E0AC9AA2E1B1E01197F1F76E
:100B500000C00000AC98E9E9F0E13197F1F700C07E
:100B60000000019781F7D1DB8FE79AE1A6E0815081
:100B70009040A040E1F700C00000C8E7D0E0CE01FF
:100B80006CE271E040E033DBCE016CE271E040E00A
:100B900064DBC3DC08E610E0C8016BE470E040E011
:100BA00026DBB3DBC8016BE470E040E020DB8FE7BD
:100BB0009AE1A6E081509040A040E1F700C000001B
:100BC00090DD8FE79AE1A6E081509040A040E1F7E8
:100BD00000C0000080E790E066E970E040E03DDBA7
:100BE000CE0166E970E040E002DBCE016CE271E02C
:100BF00040E033DB8ADB8FE79AE1A6E0815090404A
:100C0000A040E1F700C00000CE0168EB71E040E0D9
:100C1000EEDA8FE79AE1A6E081509040A040E1F73C
:100C200000C00000C80166E970E040E0E0DA8FE74C
:100C30009AE1A6E081509040A040E1F700C000009A
:100C400085E090E0AC9AA2E1B1E01197F1F700C025
:100C50000000AC98E9E9F0E13197F1F700C000003D
:100C6000019781F78AE090E0AB9AA2E1B1E0119799
:100C7000F1F700C00000AB98E9E9F0E13197F1F736
:100C800000C00000019781F78FE090E0AA9AA2E1EE
:100C9000B1E01197F1F700C00000AA98E9E9F0E18E
:100CA0003197F1F700C00000019781F784E190E0EF
:100CB000A99AA2E1B1E01197F1F700C00000A9984C
:100CC000E9E9F0E13197F1F700C00000019781F701
:100CD0001CDB8FE39DE0A3E081509040A040E1F752
:100CE00000C0000085E090E0AC9AA2E1B1E011976D
:100CF000F1F700C00000AC98E9E9F0E13197F1F7B5
:100D000000C00000019781F78AE090E0AB9AA2E171
:100D1000B1E01197F1F700C00000AB98E9E9F0E10C
:100D20003197F1F700C00000019781F78FE090E064
:100D3000AA9AA2E1B1E01197F1F700C00000AA98C9
:100D4000E9E9F0E13197F1F700C00000019781F780
:100D500084E190E0A99AA2E1B1E01197F1F700C017
:100D60000000A998E9E9F0E13197F1F700C000002F
:100D7000019781F7CADA8FE79AE1A6E081509040A7
:100D8000A040E1F700C00000DF91CF911F910F91CB
:100D900008958FEF87BB84BB11BA82BB8BB7806C81
:100DA0008BBF85B785BF7894B0DA79DCC0E0D0E03E
:100DB00000E010E023C0E8DC8FE79FE4A2E181506F
:100DC0009040A040E1F700C000001ADE8FE79FE4EA
:100DD000A2E181509040A040E1F700C00000C43182
:100DE000D10559F48FE794E8AEE181509040A040DE
:100DF000E1F700C0000053DCE8012196C531D105C0
:100E0000D4F2C2DC8FE79FE4A2E181509040A04081
:100E1000E1F700C00000F4DD8FE79FE4A2E181501C
:100E20009040A040E1F700C00000E801E6CFF89450
:020E3000FFCFF2
:100E32000C00120081006000C400920019006800DA
:100E420040008000100008000400020001002000A1
:100E52006400C40086009200130019002900680093
:100E62004000C000800090001000180008004800F8
:100E720024000400060002000300010021002000FB
:00000001FF
